:100000000C94E6020C940E030C940E030C94FD1257
:100010000C94FD120C94FD120C940E030C940E0320
:100020000C940E030C940E030C940E030C94941475
:100030000C940E030C940E030C940E030C940E03FC
:100040000C945B120C940E030C94CB120C94A5121E
:100050000C940E030C940E030C940E030C940E03DC
:100060000C9475130C940E0300407A10F35A00A000
:10007000724E18090010A5D4E80000E87648170071
:1000800000E40B54020000CA9A3B000000E1F505B1
:10009000000080969800000040420F000000A086FB
:1000A00001000000102700000000E803000000002D
:1000B0006400000000000A000000000001000000D1
:1000C00000002C76D888DC674F0823DFC1DFAE59EB
:1000D000E1B1B796E5E3E453C63AE651997696E87E
:1000E000E6C28426EB898C9B62ED407C6FFCEFBC02
:1000F0009C9F40F2BAA56FA5F490055A2AF75C932D
:100100006B6CF9676DC11BFCE0E40D47FEF520E662
:10011000B500D0ED902E0300943577050080841E45
:10012000080000204E0A000000C80C333333330FA0
:10013000986E12831141EF8D2114893BE65516CF3D
:10014000FEE6DB18D1844B381BF77C1D901DA4BB49
:10015000E424203284725E228100C9F124ECA1E5FE
:100160003D27207F0101000000000000000000008A
:10017000005E0000000000000600000600000024F1
:100180007E24247E240000246B2A2A6B1200004661
:1001900026100864620000344A4A542050000000CF
:1001A0000000060000000000003C420000000000CB
:1001B00000423C000000002A1C3E1C2A00000008EF
:1001C000083E080800000000403000000000000861
:1001D0000808080808000000004000000000004077
:1001E000201008040200003C62524A463C000040D5
:1001F000447E404000000064525252524C000024A1
:10020000424A4A4A340000382422227E2000002E2E
:100210004A4A4A4A3200003C4A4A4A4A30000002EE
:100220000262120A060000344A4A4A4A3400000CAC
:10023000525252523C000000002400000000000016
:1002400040240000000000000814220000000014F8
:1002500014141414140000000022140800000004F8
:1002600002520A0400000018245A5A241800007C84
:10027000121212127C00007E4A4A4A4A3400003CA4
:10028000424242422400007E424242423C00007E02
:100290004A4A4A424200007E0A0A0A020200003C20
:1002A000424252523400007E080808087E000000D6
:1002B000427E420000000020404040403E00007E60
:1002C000080808146200007E404040404000007E64
:1002D000040808047E00007E040810207E00003C14
:1002E000424242423C00007E121212120C00003CBC
:1002F000425262423C00007E121212324C00002434
:100300004A4A4A4A30000002027E02020000003ED1
:10031000404040403E00001E204040201E00007E25
:10032000201010207E0000422418182442000002F1
:10033000047804020000004262524A464200000073
:100340007E4242000000000204081020400000002D
:100350000042427E00000000000402040000808091
:100360008080808080800000000204000000002067
:10037000545454780000007E48484830000000384B
:1003800044444428000000304848487E00000038BB
:100390005454544800000000087C0A020000001871
:1003A000A4A4A47C0000007E0808087000000000DF
:1003B000487A4000000000408080887A0000007E7B
:1003C0001010284400000000427E40000000007C25
:1003D000047804780000007C0404047800000038ED
:1003E00044444438000000FC4444443800000038D1
:1003F000444444FC0000007C08040404000000485D
:100400005454542400000000043E44000000003C0A
:100410004040207C0000001C2040201C0000001CEC
:10042000601C601C00000044281028440000001CD0
:10043000A0A0A07C0000004464544C4400000000D4
:10044000083641000000000000FF0000000000002E
:1004500041360800000008040408101008000000DD
:100460000000000000004D6F64653A20484F4D4980
:100470004E4700486F6D696E6720646F6E65004877
:100480006F6D696E67206572726F723A20484F4DCA
:1004900045207374696C6C20707265737365642099
:1004A0006166746572206261636B6F666600486F97
:1004B0006D696E673A2072656C6561736564202DA5
:1004C0003E20534C4F5700486F6D696E673A206667
:1004D0006972737420686974202D3E204241434B39
:1004E0004F464600486F6D696E67206572726F7285
:1004F0003A20454E442072656163686564206167F7
:1005000061696E2C2061626F727400486F6D696E54
:1005100067207361666574793A20454E44207265A0
:100520006163686564202D3E20666C697020646993
:100530007200547261636B696E673A204F464600E1
:10054000547261636B696E673A204F4E00454E44AA
:1005500020656E6473746F7020686974202D3E206E
:1005600073746F7020747261636B696E6700000052
:100570000000240027002A000000000800020100FB
:10058000000304070000000000000000000000005D
:1005900023002600290000000000250028002B0071
:1005A0000404040404040404020202020202030319
:1005B0000303030301020408102040800102040821
:1005C00010200102040810208B151B1F11241FBED0
:1005D000CFEFD8E0DEBFCDBF12E0A0E0B1E0E4E2B3
:1005E000FFE402C005900D92AE3BB107D9F725E0BC
:1005F000AEEBB2E001C01D92A93DB207E1F712E0F7
:10060000C5EED2E004C02197FE010E945B22C43EE9
:10061000D107C9F70E9438170C9485270C94000065
:1006200080E00895662329F06A3019F0862F90E063
:1006300008958FEF9FEF08951F93CF93DF9300D01E
:1006400000D01F92CDB7DEB71C8221E02B839A83A6
:100650008983E0914B05F0914C0511891D82A09191
:100660004B05B0914C05E0914F05F09150059E016E
:100670002F5F3F4F50964C916FE08BE495E00995CA
:100680008D818F5F8D83811750F30F900F900F90A6
:100690000F900F90DF91CF911F9108959B01DC0186
:1006A0001896ED91FC9141E067E109940F931F9337
:1006B000CF93DF93582FFC0180E077E0919148E0E1
:1006C000282F30E0A92FB0E08901000F012F001F73
:1006D000110B9170C92F90E0D92F880F0C171D07AF
:1006E00021F0C901880F991F8727B595A7959A2FE3
:1006F000415031F79E2F951B961700F3DF91CF9154
:100700001F910F910895833081F028F4813099F082
:100710008230A9F008958730A9F08830C9F084307C
:10072000B1F4809180008F7D03C0809180008F772D
:1007300080938000089584B58F7784BD089584B533
:100740008F7DFBCF8091B0008F778093B0000895AC
:100750008091B0008F7DF9CFCF93DF93282F30E0C9
:10076000F901E858FA4F8491F901EC54FA4FD49109
:10077000F901E056FA4FC491CC23A1F081110E94F7
:100780008303EC2FF0E0EE0FFF1FE457FA4FA59123
:10079000B491EC91ED2381E090E009F480E0DF91E9
:1007A000CF91089580E090E0FACF1F93CF93DF932D
:1007B000282F30E0F901E858FA4F8491F901EC5400
:1007C000FA4FD491F901E056FA4FC491CC23A9F025
:1007D000162F81110E948303EC2FF0E0EE0FFF1F14
:1007E000EA56FA4FA591B4918FB7F894EC91111194
:1007F00008C0D095DE23DC938FBFDF91CF911F918E
:100800000895DE2BF8CFCF93DF9390E0FC01EC54FA
:10081000FA4F249180569A4FFC0184918823C9F0A5
:1008200090E0880F991FFC01E259FA4FA591B4910D
:10083000FC01EA56FA4FC591D49161110DC09FB7E2
:10084000F8948C91209582238C9388812823288387
:100850009FBFDF91CF910895623051F49FB7F89414
:100860003C91822F809583238C93E8812E2BEFCFB0
:100870008FB7F894EC912E2B2C938FBFEACF3FB714
:10088000F89480919A0490919B04A0919C04B0915B
:100890009D0426B5A89B05C02F3F19F00196A11D08
:1008A000B11D3FBFBA2FA92F982F8827BC01CD01BA
:1008B000620F711D811D911D42E0660F771F881F19
:1008C000991F4A95D1F708958F929F92AF92BF9248
:1008D000CF92DF92EF92FF926B017C010E943F0466
:1008E0004B015C01C114D104E104F104B9F00E9490
:1008F0003F04681979098A099B09683E734081059C
:10090000910580F321E0C21AD108E108F10888EED0
:10091000880E83E0981EA11CB11CE4CFFF90EF90DD
:10092000DF90CF90BF90AF909F908F9008952FB79A
:10093000F894609196047091970480919804909136
:1009400099042FBF089508950895AF92BF92CF9252
:10095000DF92EF92FF920F931F93CF93DF936C017F
:100960007B018B01040F151FEB015E01AE18BF0860
:10097000C017D10759F06991D601ED91FC91019012
:10098000F081E02DC6010995892B79F7C501DF912A
:10099000CF911F910F91FF90EF90DF90CF90BF907C
:1009A000AF900895FC01538D448D252F30E0842FA6
:1009B00090E0821B930B541710F0CF960895019787
:1009C0000895FC01918D828D981761F0A28DAE0F74
:1009D000BF2FB11D5D968C91928D9F5F9F73928FFB
:1009E00090E008958FEF9FEF0895FC01918D828D27
:1009F000981731F0828DE80FF11D858D90E00895F4
:100A00008FEF9FEF0895FC01918D228D892F90E04B
:100A1000805C9F4F821B91098F73992708958EE9FF
:100A200094E00E94030521E0892B09F420E0822F45
:100A3000089580E090E0892B29F00E940F05811134
:100A40000C9400000895FC01A48DA80FB92FB11DCE
:100A5000A35ABF4F2C91848D90E001968F739927F4
:100A6000848FA689B7892C93A089B1898C918370D2
:100A700080648C93938D848D981306C00288F389CB
:100A8000E02D80818F7D80830895EF92FF920F93F8
:100A90001F93CF93DF93EC0181E0888F9B8D8C8D2A
:100AA00098131AC0E889F989808185FF15C09FB71E
:100AB000F894EE89FF896083E889F98980818370E1
:100AC000806480839FBF81E090E0DF91CF911F9190
:100AD0000F91FF90EF900895F62E0B8D10E00F5FB1
:100AE0001F4F0F731127E02E8C8D8E110CC00FB687
:100AF00007FCFACFE889F989808185FFF5CFCE011F
:100B00000E942305F1CFEB8DEC0FFD2FF11DE35A71
:100B1000FF4FF0829FB7F8940B8FEA89FB898081A1
:100B20008062CFCF0F931F93CF93DF938C01D0E0E0
:100B3000C0E0F801EC0FFD1F6491662341F08EE9DF
:100B400094E00E944505892B11F02196F2CF42E0F6
:100B500050E068ED71E08EE994E00E94A5048C0FEE
:100B60009D1FDF91CF911F910F910895CF93DF9338
:100B7000EC01888D8823B9F0AA89BB89E889F989B5
:100B80008C9185FD03C0808186FD0DC00FB607FCEA
:100B9000F7CF8C9185FFF2CF808185FFEDCFCE011D
:100BA0000E942305E9CFDF91CF910895CF93DF9382
:100BB000EC016C81617088810E94D5036C8166951F
:100BC00061708A81DF91CF910C94D503FC01A4A5BB
:100BD000B5A5109749F0ED91FC9111970190F08126
:100BE000E02DCD010995089582A593A5009739F0D0
:100BF000DC01ED91FC910190F081E02DF3CF80E0DC
:100C00000895CF92DF92EF92FF920F931F93CF93AD
:100C1000DF93CDB7DEB728970FB6F894DEBF0FBECF
:100C2000CDBF7C0118861F8285E08983F70182A9E8
:100C30008A8360686B835C834D833E832F8367E088
:100C4000CE0101960E9456038887F70182A593A5DD
:100C5000892B31F080A991A9009711F00E94D60547
:100C60008E010F5F1F4F6E01F9E0CF0ED11CF8010E
:100C700061918F01C7010E94E605F7012189328940
:100C8000820F932F911D928B818B0C151D0579F787
:100C900062E070E080E090E00E94640428960FB665
:100CA000F894DEBF0FBECDBFDF91CF911F910F91A2
:100CB000FF90EF90DF90CF900895E9E9F5E0908103
:100CC00080FB92F99083292F80919A05382F3370F9
:100CD00050E040E060E081E895E00C940106FC0102
:100CE000A4A5B5A5109741F0ED91FC911197028450
:100CF000F385E02DCD01099482A593A5009739F0E5
:100D0000DC01ED91FC910284F385E02DF4CF90E0BD
:100D100080E00895FC01A4A5B5A5109741F0ED91E0
:100D2000FC9111970084F185E02DCD01099482A5F5
:100D300093A5009739F0DC01ED91FC910084F185D9
:100D4000E02DF4CF90E080E00895DC01ED91FC917E
:100D50000280F381E02D6FE60994262F2F70DC01CD
:100D600095966C919597607F622B95966C9395976D
:100D700092962D913D914D915C919597ED91FC91BD
:100D80000190F081E02D6CE60994DC0194962C91A1
:100D9000949760FB21F994962C93949792962D91B9
:100DA0003D914D915C919597ED91FC910190F08171
:100DB000E02D6CE60994CF92DF92EF92FF92CF93F1
:100DC000BC0190E080E00E948A2325ED34E045E3F9
:100DD00052E40E94412420E030E04AE754E40E94BB
:100DE000E2226B017C012AE037ED43EA5CE360918B
:100DF0008A0570918B0580918C0590918D050E94DC
:100E00007122A70196010E94412426E636E646EAB1
:100E10005EE30E94E22220E030E040E85FE30E94CF
:100E200070220E945B23C62F603108F06AC061E027
:100E300081E895E00E94C5062AE037ED43EA5CE3CD
:100E400060918A0570918B0580918C0590918D053C
:100E50000E947122A70196010E9441242CEE31E5E7
:100E600048E35EE30E94E22220E030E040E85FE3F6
:100E70000E9470220E945B23C62FC03208F0CFE18F
:100E80009C2F9F7180918405807E892B809384059F
:100E900020918305382F80918505482F4F7050E0B1
:100EA00060E181E895E00E9401066C2F70E090E01F
:100EB00080E00E948C2320918E0530918F05409117
:100EC0009005509191050E9441240E945B23862F3A
:100ED0008F7160918305607E682B60938305262F58
:100EE0003091840580918505482F4F7050E060E176
:100EF00081E895E0CF91FF90EF90DF90CF900C9438
:100F0000010660E081E895E00E94C506B6CFDC01ED
:100F100093968C91939760FB87F993968C93939714
:100F200061FB882780F994966C9194976E7F682B6B
:100F300094966C93949792962D913D914D915C91DE
:100F40009597ED91FC9111970190F081E02D6CE661
:100F5000CD010994DC0192968C91929760FB87F900
:100F600092968C9392976695677093968C919397CF
:100F7000887F682B93966C93939792962D913D91D1
:100F80004D915C919597ED91FC9111970190F081B5
:100F9000E02D6CE6CD0109946770262F2295207F05
:100FA000DC0192966C9192976F78622B92966C937B
:100FB000929792962D913D914D915C919597ED91DF
:100FC000FC910190F081E02D6CE60994DC01ED913B
:100FD000FC910280F381E02D6CE609940E94E60703
:100FE000892F8F7008950E94E60786958170089575
:100FF0000E94E607771F7727771F8170880F872B5E
:1010000008950E94E607862F881F8827881F77701B
:10101000770F872B08950E94E607862F82958770A9
:1010200008952091DC033091DD032817390771F40E
:101030009091DB038091DA03981741F0E091DB0394
:10104000F0E0E656FC4F808190E008958FEF9FEF2F
:1010500008950895EF92FF920F931F93CF93DF931C
:10106000DC015C96ED90FC905D97E114F10479F45D
:1010700081E090E013969C938E93129790E080E02D
:10108000DF91CF911F910F91FF90EF9008955196AE
:10109000ED91FC91529750968C915097982F909586
:1010A0000FB75E962C915E97122F127021FD6095FE
:1010B000F8942081112319F1282B2083E70121972F
:1010C000F1F728E0462F50E0308160FF1AC0382B3E
:1010D0003083E7012197F1F7BA01759567952150A3
:1010E00089F7112381F08081892380830FBF5C966B
:1010F0008D919C910197F1F781E090E0C1CF292378
:10110000DCCF3923E5CF9081892BEFCF2091DC0311
:101110003091DD032817390771F48091DA032091AB
:10112000DB0390E0805C9F4F821B910960E470E0DC
:101130000E94B121089590E080E008952091DC03A1
:101140003091DD0328173907B9F49091DB038091C2
:10115000DA03981789F0E091DB03F0E0E656FC4FE4
:1011600080812091DB0330E02F5F3F4F2F733327C7
:101170002093DB0390E008958FEF9FEF0895E091B7
:10118000DC03F091DD03E817F90769F4A389B4895A
:101190009C918589809589238C931092DD03109210
:1011A000DC0381E0089580E00895CF93DF93EC01A4
:1011B0008A8D9B8D892B01F18091DC039091DD0359
:1011C0008C179D07C9F0009711F00E94BF088E8D03
:1011D0008E7F8E8F1092DA031092DB03D093DD03A3
:1011E000C093DC03EB89FC8980819D89892B8083F6
:1011F00081E0DF91CF91089580E0FBCF2F923F9265
:101200004F925F926F927F928F929F92AF92BF9216
:10121000CF92DF92EF92FF920F931F93CF93DF93C2
:10122000CDB7DEB761970FB6F894DEBF0FBECDBF66
:101230001C011C861B8685E08987F10182A98A87AB
:101240006B8763E0CE0109960E9456038C87F2E01B
:10125000F98B9E01235F3F4F3E872D87F10184A5C7
:1012600095A5009761F00E94D508C1010E948A06E9
:10127000181619067CF4C1010E946F06F6CF82A5EC
:1012800093A5892B91F380A991A9009771F30E94EE
:10129000D605EBCFF10186A597A5009741F061E057
:1012A0000E94D50361E0F10186A50E9403048E012E
:1012B000075F1F4FF80161918F01C1010E94E60590
:1012C0002D853E8502171307A9F7F10186A597A57D
:1012D000009719F062E00E94030462E070E080E091
:1012E00090E00E9464040E9497042B013C018985D0
:1012F000CB84D12CF12CE12CDD24DA94E82A812C4A
:10130000912C540105E010E00E94970464157505C6
:101310008605970531F00150110909F474C02B01BD
:101320003C01C1010E946F0697FD0FC07A2D692D07
:10133000582D44274C019924092C000CAA08BB08FD
:10134000842A952AA62AB72ABB24C814D904EA04F9
:10135000FB04D1F626013701812C912C54010E9407
:1013600097046B017C0125E030E0388B2F8710E07B
:101370000E9497046C157D058E059F0549F0EF8549
:10138000F8893197F88BEF87EF2BE9F16B017C013E
:10139000C1010E946F06DC0197FD1CC09201A301F0
:1013A000B401C50108E00E941122BB27EB2FEE0F0C
:1013B000EE0B422E4A2A532E5B2A6E2E642A7E2E74
:1013C000752A8E2E862A9E2E972AAE2EA82ABE2EEB
:1013D000B92A1F5F153061F6F10186A597A5009720
:1013E00041F061E00E94D50361E0F10186A50E9411
:1013F0000304C1010E948A061816190664F4C1018B
:101400000E946F06F6CF412C512C612C712C812C3F
:10141000912CA12CB12CF10184A595A5009711F078
:101420000E94BF0862E070E080E090E00E946404E7
:10143000F101178A9201A301B401C50108E30E94DA
:101440002C2229839201A301B401C50100E30E946B
:101450002C222A839201A301B401C50108E20E9453
:101460002C222B839201A301B401C50100E20E944A
:101470002C222C839201A301B401C50108E10E9432
:101480002C222D839201A301B401C50100E10E9429
:101490002C222E839201A301B401C50108E00E9411
:1014A0002C222F83488667E0CE0101960E945603C6
:1014B000481202C0411011C081E0F101878BF98907
:1014C000F13019F021E0298BC9CE412C512C612C2F
:1014D000712C812C912CA12CB12C9201A301B4016F
:1014E000C50108E00E942C22B901CA0161960FB61D
:1014F000F894DEBF0FBECDBFDF91CF911F910F914A
:10150000FF90EF90DF90CF90BF90AF909F908F9023
:101510007F906F905F904F903F902F900895CF9362
:10152000DF93EC019A01AB011B8E1A8E198E188E77
:101530001F8A1E8A60E079E08DE390E00E94E72137
:10154000F901C90103972430310510F481E090E0DE
:101550009D8F8C8F6C85663108F052C0C9019695BD
:1015600087958431910508F450C043979F8B8E8BEB
:10157000C9010597369710F481E090E0998F888F24
:10158000C901880F991F280F391F36952795369561
:1015900027952D303105E0F12C5031093B8F2A8FF2
:1015A0009091680084E0683048F021E06E3008F4E3
:1015B00020E081E001C0880F2A95EAF7892B80930B
:1015C00068009C852DE630E0983050F02BE630E046
:1015D0009E3030F02CE630E0963110F030E020E024
:1015E0003C8B2B8B292F30E09830A8F481E001C090
:1015F000880F9A95EAF78D8B8C8D9D8D0197F1F769
:10160000CE01DF91CF910C94D50881E090E0AECF70
:1016100021E030E0C3CF9E3040F42850310981E012
:1016200001C0880F2A95EAF7E6CF2E503109F7CF8F
:10163000DC011A96ED91FC9130E020E00994DC0188
:101640001696ED91FC9130E020E040E069E10994CC
:10165000DC011696ED91FC9130E020E040E068E17D
:1016600009949A01DC011696ED91FC91462F67E1F1
:101670000994EF92FF920F931F93CF93DF931F92E2
:10168000CDB7DEB77C018B01D8016C91673129F1B0
:1016900050F46531A0F40F90DF91CF911F910F911D
:1016A000FF90EF9008956A3118F16E3FA1F7F801AD
:1016B0004181498369E2C7010E94180B0BC0F80100
:1016C00041814983D7011696ED91FC9130E020E0ED
:1016D000C70109950E5F1F4FD7CFF801818189831C
:1016E000AE014F5F5F4F61E0C7010E94310BF2CF47
:1016F0000F5F1F4FD7011696ED91FC9130E020E06F
:1017000040E0C7010995C0CF462FDC011696ED9148
:10171000FC9130E020E066E10994462FDC0116964A
:10172000ED91FC9130E020E065E10994EF92FF92A9
:101730000F931F93CF93DF93EC01042F79016D304A
:1017400009F446C050F46B30C9F1693009F49FC008
:101750006A3009F465C080E046C06E3009F452C0BA
:101760006F3099F70E94280BF7011381110F110FA9
:10177000110F6C89160F60E4CE010E948D0B612F52
:1017800062956F706061CE010E948D0B612F6F704A
:10179000CE010E94840BF7016481606BCE010E9430
:1017A000840BF701408151816281660F660F660FDD
:1017B000CE010E94310B0150A1F72EC066E271E00C
:1017C000442311F061E271E0CE010E94390B0AC09E
:1017D000411110C06AE171E00E94390BE881F98182
:1017E00082898C8B81E0DF91CF911F910F91FF90C7
:1017F000EF90089563E171E00E94390BE881F9816F
:101800008389EFCF0E94280B61E8CE010E948D0BE7
:10181000602FCE010E94840BCE010E941F0BE2CFED
:10182000EA85FB8530E020E040E068E2CE010995E2
:10183000EE81FF8130E020E040E064E1CE010995D7
:1018400041E06BE4CE010E94180BE881F9814481EC
:1018500069E2CE010E94180B40E06BE4CE010E94C9
:10186000180BE881F981448169E2CE010E94180BCE
:1018700041E06BE4CE010E94180BE881F9814581BB
:1018800069E2CE010E94180B6BE271E09DCF80E609
:1018900091E0998388831C8AA5CFDC011896ED918D
:1018A000FC9130E020E040E069E10994DC01189609
:1018B000ED91FC9130E020E040E068E10994CF93A5
:1018C000DF931F92CDB7DEB76983BE016F5F7F4F95
:1018D0000E944E030F90DF91CF910895EF92FF92F7
:1018E0001F93CF93DF93EC01162F7A010E94560CC1
:1018F00060E4CE010E945F0CE885F9859701412FD5
:1019000067E1CE010995CE01DF91CF911F91FF9044
:10191000EF900C944D0CEF92FF921F93CF93DF93B7
:10192000EC01142F7901663181F138F4643109F446
:101930004BC0653179F080E022C06831C9F150F1C7
:101940006931C9F780919903882391F1CE010E94F2
:101950004D0C2EC080919903882319F0CE010E946E
:101960004D0CCE010E94560C60E0CE010E945F0C2F
:10197000612FCE010E945F0C81E080939903DF917B
:10198000CF911F91FF90EF900895642F0E945F0CFC
:1019900081E0F5CF80919903882319F0CE010E9450
:1019A0004D0CA701193138F4612FCE010E946E0C45
:1019B00010929903EDCF68E1CE010E946E0C185190
:1019C00088E1E80EF11CEDCF8E898F3F11F488E796
:1019D0008E8BE885F9859701412F64E1CE01DF9177
:1019E000CF911F91FF90EF900994CF93DF93EC017B
:1019F000A889B989FD0134913196949131968491E9
:101A00001396FD01A4916317A8F1961798F1631B33
:101A1000770B8A9FE02D1124E69FC001E79F900D70
:101A20001124280F392F311D83E0220F331F8A958F
:101A3000E1F7C9010496DA01245F3F4FE889F9898B
:101A4000E80FF91FE491ED93019682179307B1F720
:101A50008D89882361F0FA019A01285F3F4F8191B7
:101A6000DF01119780958C932E173F07C1F7DF9107
:101A7000CF910895FA01CA0108961192E817F90763
:101A8000E1F7E6CF4F925F926F927F928F929F9293
:101A9000AF92BF92CF92DF92EF92FF920F931F937C
:101AA000CF93DF93CDB7DEB72D970FB6F894DEBF97
:101AB0000FBECDBF7C01C62ED42EB22EDC015096B7
:101AC0008D919C91FC013296149131960491512E86
:101AD000560E040F81E0860F581608F411E0712CA1
:101AE000FE0131964F0144244394672CAC2C262DE3
:101AF000A4016B2DC7010E94F50CAC86DD864B86D8
:101B00009A868986D7011496ED91FC919E01275FF4
:101B10003F4F41E06FE0C70109956394A394A5147A
:101B200030F3D394710ED01600F32D960FB6F894BF
:101B3000DEBF0FBECDBFDF91CF911F910F91FF9000
:101B4000EF90DF90CF90BF90AF909F908F907F905D
:101B50006F905F904F900895EF92FF920F931F93B5
:101B6000CF93DF93E82EE0915B05F0915C05329610
:101B7000C491109263058B01D0E0F12CF8016191C2
:101B80008F01E0914D05F0914E058BE495E00995AC
:101B90008F3F980771F08E3F2FEF920779F3282F30
:101BA0004E2D6F2D8BE495E00E94420DFC0EDF5F01
:101BB000E5CF8D2FDF91CF911F910F91FF90EF9087
:101BC000089522E133E030934E0520934D050C94A7
:101BD000AC0D0F931F93CF93DF938C01C62F642F0F
:101BE000CC32B0F4CA32D0F5C83239F1C932E1F1A1
:101BF00080E0C034A0F1CF73F801EC0FF11D868DA9
:101C00008F3F61F1C03108F045C00E94D50326C066
:101C1000CD3281F168F384EB8C0F823048F7CF73BB
:101C2000C00FD12FD11D8E8D411132C00E94D5031E
:101C300061E08E8D0E94030411C0025E1F4FD0E050
:101C4000F80181918F018F3F31F061E0D03108F0D0
:101C500062E00E940304DF5FD63191F781E0DF91FB
:101C6000CF911F910F91089570E090E080E00E9465
:101C70006404F4CF85E090E0433010F082E090E01F
:101C8000880F991F880F991F05970197F1F7E6CFE5
:101C900062E0D0CF0E94AC0321E0892B09F420E060
:101CA000F801218FDBCF1F93CF93DF93EC01EC89F9
:101CB000FD8949AD6A3059F43396E491E40FE9AFF8
:101CC00018AE81E090E0DF91CF911F910895262F0B
:101CD0003296149168AD04960E94420DE8ADE10F72
:101CE000E8AFEFCF20912803260F3327331F21328F
:101CF0003105ECF420917103FC0190E080E0243088
:101D000069F082E00895A09128032191AC01485F19
:101D10005C4FA40FB52FB11D2C930196861798F335
:101D200080912803680F6093280380E0089581E084
:101D300008951092710381E08093700310924B0319
:101D400061E082E10E94D50361E083E10E94D50356
:101D5000E9EBF0E080818E7F808380818D7F8083BE
:101D600088E48093B80085E48093BC000895CF9305
:101D7000DF9391E0909307038823B9F0C091B800F6
:101D8000D091BA008091BC008A7B8093BC0060E057
:101D900082E10E94D50360E083E10E94D5030E94A6
:101DA000990ED093BA00C093B800DF91CF910895F7
:101DB000E091E5038091E403E81730F4F0E0E951A5
:101DC000FD4F808190E008958FEF9FEF08959091EF
:101DD000E5038091E4032FEF3FEF981748F4E92FD4
:101DE000F0E0E951FD4F208130E09F5F9093E503E3
:101DF000C90108958091E4039091E503891B990B33
:101E00000895CF92DF92EF92FF920F931F93CF939B
:101E1000DF937C01CB018A0120917703222389F093
:101E2000EB016B01C40ED51ECC15DD0569F069917F
:101E3000D701ED91FC910190F081E02DC70109954A
:101E4000F3CF642F0E94720EC801DF91CF911F91D2
:101E50000F91FF90EF90DF90CF900895CF92DF9297
:101E6000EF92FF920F931F93CF93DF93EC01962F86
:101E7000683109F44BC0B901993130F49431C9F09B
:101E8000973189F080E006C0993109F461C0903241
:101E9000C9F781E0DF91CF911F910F91FF90EF90F3
:101EA000DF90CF90089550E08BE395E00E94010F02
:101EB000F0CF8C859D85AE85BF85892B8A2B8B2B9A
:101EC00071F4E881F981A585B0E020EA36E841E0C7
:101ED00050E00E9406226C877D878E879F87109234
:101EE000E5031092E4031092E3031092E2030E94D0
:101EF000990E83EA94E09093DF038093DE0384EAF3
:101F000094E09093E1038093E003C3CF2C853D855B
:101F10004E855F8560E074E284EF90E00E94C52109
:101F20002051310941095109569547953795279513
:101F30002093B8008E8990E09595879591E09093D5
:101F40007703809398031092E3031092E203A1CFEA
:101F5000D091E203D13208F093C0C09198030E945F
:101F60003F046B017C0180917103811164C082E0A8
:101F70008093710381E0809370038FEF80936F03F0
:101F800010926E03D0936D03A8E7B3E0EDE4F3E0A5
:101F900080E0D8137CC010924C0380914C03CC0F8E
:101FA000C82BC0934C0380914B03813009F073C060
:101FB00010924B030E943F046B017C0180914C0303
:101FC0008093BB008091730390917403A09175037B
:101FD000B0917603892B8A2B8B2B99F00E943F04BA
:101FE000009173031091740320917503309176036F
:101FF0006C197D098E099F090617170728073907ED
:10200000D8F18091BC0083FDD9CF85EC8093BC00D2
:102010000E943F046B017C01809171038230E9F1E1
:1020200080916F038F3F61F180916F03803241F1A6
:1020300080916F0325C08091730390917403A091E8
:102040007503B0917603892B8A2B8B2B09F48BCFE8
:102050000E943F0400917303109174032091750353
:10206000309176036C197D098E099F0906171707B1
:102070002807390708F077CF809172030E94B70EC6
:102080001092E3031092E2031092770302CF9D9126
:1020900091938F5F7ECF85EEB9CF8091730390913E
:1020A0007403A0917503B0917603892B8A2B8B2B37
:1020B00009F4B2CF0E943F0400917303109174039E
:1020C00020917503309176036C197D098E099F0963
:1020D000061717072807390708F09ECFCDCFCF93F3
:1020E000DF931F92CDB7DEB7698320917703222358
:1020F000F9F02091E203203258F021E030E0FC01B9
:102100003383228390E080E00F90DF91CF91089598
:102110008091E303E82FF0E0E858FC4F9981908329
:102120008F5F8093E3038093E20381E090E0ECCF44
:1021300061E0CE0101960E94720EF7CFCF92DF923E
:10214000EF92FF926B017C0127E137EB41ED58E301
:102150000E94DD2287FF08C087E1C82E87EBD82EBA
:1021600081EDE82E88E3F82EA701960160E074E285
:1021700084EF99E40E94E2220E945B23643171059E
:102180008105910520F464E170E080E090E02FB7D4
:10219000F894609300017093010180930201909381
:1021A00003012FBFFF90EF90DF90CF900895CF9263
:1021B000DF92EF92FF92CF93A8E0B0E030E020E012
:1021C000EFEFF3E060E070E0CB01C0E4C0937C008F
:1021D00040917A00406440937A0040917A0046FD35
:1021E000FCCF40917800509179006A01052E000CD7
:1021F000EE08FF086C0D7D1D8E1D9F1D4E175F079D
:102200000CF4FA01241735070CF49A011197F1F632
:102210002E1B3F0B2D33310564F01092060160E058
:1022200070E080E89FE3CF91FF90EF90DF90CF9038
:1022300008950E948A2320E030E040E05EE30E949F
:1022400041246B017C0181E08093060120E030E0B5
:102250004CEF53E4C701B6010E943C24181654F415
:1022600020E030E042E054E4C701B6010E94DD22E4
:1022700087FD3AC020E030E040E054E4C701B601F9
:102280000E94DD221816D4F120E030E040E05BE34C
:10229000C701B6010E9441246B017C0120E030E0BF
:1022A000A9010E94DD2287FD25C020E030E040E842
:1022B0005FE3C701B6010E943C24181634F4C12C18
:1022C000D12C90E8E92E9FE3F92E20ED3CEC4CE474
:1022D0005EEBC701B6010E9441242AE939E949E9C8
:1022E0005FE30E9471229FCFC12CD12CE12C24E40A
:1022F000F22ECACFC12CD12C7601E7CF20E030E0FE
:1023000040E054E4C701B6010E94702220E030E0B2
:1023100049E153E40E94E2226B017C0120E030E0BD
:10232000A9010E94DD2287FD1DC020E030E040E8C9
:102330005FE3C701B6010E943C24181634F4C12C97
:10234000D12C80E8E82E8FE3F82E2CEC3CEC4CE40A
:102350005EEBC701B6010E94412420E030E040E876
:102360005FE3BFCFC12CD12C7601EFCFCF93DF93AA
:1023700062E085E00E94030462E084E00E940304BE
:1023800085E00E94AC03EC0184E00E94AC0320973E
:1023900059F0892B79F060911001709111018091B1
:1023A0001201DF91CF910895892B21F460E070E054
:1023B00081E0F7CF61E070E081E0CD2B91F380E028
:1023C000F0CFCF938BE00E94AC03C82F8AE00E942D
:1023D000AC03982F61E0C11160E071E0911170E0F1
:1023E0008C2FCF9108955A980895CF92DF92EF9253
:1023F000FF920F931F93CF93DF936C01EB017B014F
:10240000E40EF51E10E000E0CE15DF0561F06991E5
:10241000D601ED91FC910190F081E02DC601099566
:10242000080F191FF1CFC801DF91CF911F910F91B4
:10243000FF90EF90DF90CF900895089590E080E0B6
:1024400008950E94AE2485ED8093BC0080917303B3
:1024500090917403A0917503B09176030796A11D26
:10246000B11D23E0B695A795979587952A95D1F745
:102470002091BC0024FD03C0109271030895409187
:102480007303509174036091750370917603452B2B
:10249000462B472B69F30097A105B10541F025E3D1
:1024A0002A95F1F700000197A109B109E1CF8091C8
:1024B00072030C94B70E1F920F920FB60F92112455
:1024C0002F933F938F939F93AF93BF9380919604E5
:1024D00090919704A0919804B0919904309195043B
:1024E00023E0230F2D3758F50196A11DB11D209330
:1024F00095048093960490939704A0939804B093C6
:10250000990480919A0490919B04A0919C04B091AD
:102510009D040196A11DB11D80939A0490939B0484
:10252000A0939C04B0939D04BF91AF919F918F9114
:102530003F912F910F900FBE0F901F90189526E896
:10254000230F0296A11DB11DD2CF1F920F920FB67D
:102550000F9211242F933F934F935F936F937F9329
:102560008F939F93AF93BF93EF93FF938EE994E084
:102570000E942305FF91EF91BF91AF919F918F91A1
:102580007F916F915F914F913F912F910F900FBE6F
:102590000F901F9018951F920F920FB60F92112453
:1025A0002F938F939F93EF93FF93E091AE04F0915D
:1025B000AF048081E091B404F091B50482FD1BC0AA
:1025C00090818091B7048F5F8F732091B804821738
:1025D00041F0E091B704F0E0E256FB4F958F809315
:1025E000B704FF91EF919F918F912F910F900FBEA4
:1025F0000F901F9018958081F4CF1F920F920FB605
:102600000F9211242F933F934F935F936F937F9378
:102610008F939F93AF93BF93EF93FF93E091DC036E
:10262000F091DD03309749F0A685B7858585968DB5
:1026300091FF14C09C918923A1F4FF91EF91BF9168
:10264000AF919F918F917F916F915F914F913F914A
:102650002F910F900FBE0F901F9018959C9189237A
:1026600061F7A389B4899C918589809589238C938E
:10267000868997890197F1F7608D718DA685B78559
:10268000558538E020E0CB010197F1F7822F90E0EB
:1026900095958795282F4C91452309F02068315056
:1026A00091F7868D81FD20958091DA0390E0019667
:1026B0008F7399273091DB03381799F0A091DA03D3
:1026C000B0E0A656BC4F2C938093DA03828D938D95
:1026D0000197F1F7A389B4898C919589892B8C9303
:1026E000ACCF868D8160868FF1CF1F920F920FB68F
:1026F0000F9211242F933F934F935F936F937F9388
:102700008F939F93AF93BF93EF93FF938091B90003
:10271000887F803609F44AC0F0F5883209F4A7C0F2
:1027200018F5803109F49BC0B8F4882309F4F9C086
:10273000883009F494C0FF91EF91BF91AF919F91C0
:102740008F917F916F915F914F913F912F910F905A
:102750000FBE0F901F901895883109F488C0803201
:1027600051F780936F0314C0803409F49DC040F486
:102770008033B9F38833F9F680936F0385ECB0C0EA
:10278000803509F485C0883509F496C0883499F6F7
:102790000E942312D0CF883909F48CC038F58837CD
:1027A00029F050F4883611F0803729F683E08093C1
:1027B000710310924A0357C0883809F47BC08039EE
:1027C00019F0803809F0B7CF80914A03803208F0C1
:1027D00071C0E0914A0381E08E0F80934A0380919B
:1027E000BB00F0E0E65DFC4F80833DC0803B39F0EC
:1027F000E0F4803A09F479C0883A09F09CCF84E08B
:10280000809371031092290310922803E091DE0354
:10281000F091DF0309958091280381110FC081E0B9
:10282000809328031092080309C0803C09F4A6CFC6
:10283000883C09F4A3CF883B09F07DCFE0912903C0
:1028400081E08E0F80932903F0E0E85FFC4F8081E8
:102850008093BB00909129038091280329C0809127
:102860004C038093BB0085EC8093BC0064CF9091B7
:102870006E0380916D03981758F5E0916E0381E027
:102880008E0F80936E03F0E0E35BFC4F8081E9CF15
:10289000E0916E0381E08E0F80936E038091BB0008
:1028A000F0E0E35BFC4F808390916E0380916D03B9
:1028B0009817C8F285E8D8CFE0916E0381E08E0FBB
:1028C00080936E038091BB00F0E0E35BFC4F80835C
:1028D0008091700381115CCF81E080934B0384EA87
:1028E0008093BC001092710326CF85EC8093BC00CE
:1028F0001092710380914A03803230F4E0914A03D0
:10290000F0E0E65DFC4F108260914A0370E0E091D8
:10291000E003F091E1038AE293E0099510924A0303
:102920000ACF10926F0334CF1F920F920FB60F92FF
:102930001124CF92DF92EF92FF922F933F934F9308
:102940005F936F937F938F939F93AF93BF93EF9317
:10295000FF9380916B0490916C04A0916D04B091F1
:102960006E04892B8A2B8B2B09F442C00E94F31131
:102970001092E60280916B0490916C04A0916D041A
:10298000B0916E04009721E0A207B10520F08FEF0F
:102990009FEFA0E0B0E040916B0450916C04609117
:1029A0006D0470916E04481B590B6A0B7B0B4093AE
:1029B0006B0450936C0460936D0470936E04909359
:1029C000890080938800FF91EF91BF91AF919F9113
:1029D0008F917F916F915F914F913F912F91FF90D8
:1029E000EF90DF90CF900F900FBE0F901F90189533
:1029F00080917404882341F180917504811124C071
:102A00008091E60281110DC08091E2029091E30273
:102A1000A091E402B091E502892B8A2B8B2B09F05F
:102A200054C0C0900001D0900101E0900201F090EC
:102A300003018091E602811116C05A9A81E08093C9
:102A4000E6028AE090E0BBCF0E94F3111092E6020A
:102A50001092E2021092E3021092E4021092E50258
:102A600080EA9FE0ACCF0E94F3111092E602D701FA
:102A7000C60184319105A105B10520F484E190E0FF
:102A8000A0E0B0E00A97A109B1098093E202909317
:102A9000E302A093E402B093E5028091E2029091F8
:102AA000E302A091E402B091E502892B8A2B8B2BE3
:102AB00061F481E090E0A0E0B0E08093E2029093C6
:102AC000E302A093E402B093E5028091E2029091C8
:102AD000E302A091E402B091E502009721E0A20791
:102AE000B10520F08FEF9FEFA0E0B0E04091E2024F
:102AF0005091E3026091E4027091E502481B590B8A
:102B00006A0B7B0B4093E2025093E3026093E40272
:102B10007093E50254CF0F931F93CF931092A104AB
:102B20001092A00488EE93E0A0E0B0E08093A204AD
:102B30009093A304A093A404B093A5042CE731E0E0
:102B400030939F0420939E0425EC30E03093AB0437
:102B50002093AA0424EC30E03093AD042093AC041D
:102B600020EC30E03093AF042093AE0421EC30E051
:102B70003093B1042093B00422EC30E03093B304DE
:102B80002093B20426EC30E03093B5042093B404D3
:102B90001092B7041092B8041092B9041092BA04BB
:102BA00010923E0510923D0580933F05909340059D
:102BB000A0934105B09342052EE831E030933C05E7
:102BC00020933B051092BD051092BC058093BE0575
:102BD0009093BF05A093C005B093C1058AEC91E026
:102BE0009093BB058093BA051092D1051092D00541
:102BF0001092D3051092D2051092D5051092D405EB
:102C00001092D7051092D6056091D8056E7F6D7F22
:102C10006093D8056695617081E0682787E00E941F
:102C2000D50361E087E00E940304EBEBF5E0E4915B
:102C3000E093CA05E7EAF5E0E491F0E0EE0FFF1F4C
:102C4000EA56FA4F859194919093CC058093CB05E9
:102C500060E086E00E9403048091D80581FD04C0F5
:102C600061E086E00E94D50386E08093C605EAEB2A
:102C7000F5E0E491E093C705E6EAF5E0E491F0E0E1
:102C8000EE0FFF1FE457FA4F859194919093C90579
:102C90008093C80510928305109284058091850564
:102CA000807F109287051092880590918905907F0A
:102CB000909389054EEA57E461EE7DE340938A05DF
:102CC00050938B0560938C0570938D0500E010E0A8
:102CD00020E03FE300938E0510938F05209390052D
:102CE00030939105109293051092920540939405AC
:102CF00050939505609396057093970510929805EB
:102D000090919A0510929B0520919C05207F20931D
:102D10009C0510929E0510929D0510929F051092A1
:102D2000A0051092A1051092A2051092AE05109276
:102D3000AD051092B0051092AF051092B205109239
:102D4000B1051092B3052AEB35E03093AC05209322
:102D5000AB0521E0209399059C7F916090939A05A3
:102D600081608093850584E18093860583E590E00A
:102D7000A0E0B0E18093A3059093A405A093A505DE
:102D8000B093A60584E290E0ADE0B1EC8093A70596
:102D90009093A805A093A905B093AA058CEA91E0A9
:102DA00090938205809381051092B4051092B50529
:102DB0008091B605807F8093B6051092B70510927A
:102DC000B9051092B80510924A0510924905109263
:102DD0007F051092800580EA91E0909348058093EA
:102DE000470510924C0510924B0510926005109209
:102DF00063051092570510925805109259051092CC
:102E00005A058FEF8093610580936505E9E6F5E04B
:102E1000CFEFC19385E0EF37F807D9F786E99BE05C
:102E20009093500580934F058BE89CE0909352055A
:102E3000809351058EE29FE0909354058093530553
:102E400089EE9DE0909356058093550530E020E093
:102E500040E069E08BE495E00E94960BC093740516
:102E6000C0937505C0937605CF911F910F9108957A
:102E7000CF93DF93CDB7DEB7C257D1090FB6F89421
:102E8000DEBF0FBECDBF789484B5826084BD84B5AB
:102E9000816084BD85B5826085BD85B5816085BD55
:102EA00080916E00816080936E001092810080910D
:102EB0008100826080938100809181008160809395
:102EC0008100809180008160809380008091B100BA
:102ED00084608093B1008091B00081608093B000E5
:102EE00080917A00846080937A0080917A00826079
:102EF00080937A0080917A00816080937A0080913B
:102F00007A00806880937A001092C100E091AE044C
:102F1000F091AF0482E08083E091AA04F091AB04C9
:102F20001082E091AC04F091AD0480E180831092B6
:102F3000B604E091B204F091B30486E08083E0919E
:102F4000B004F091B104808180618083E091B0048D
:102F5000F091B104808188608083E091B004F091A9
:102F6000B104808180688083E091B004F091B10465
:102F700080818F7D808364E670E080E090E00E9435
:102F8000640461E087E00E94030461E087E00E943E
:102F9000D50362E086E00E94030464E170E080E013
:102FA00090E00E94640440E052EC61E070E08AEB43
:102FB00095E00E948F0A8AEB95E00E94D50868ECA4
:102FC00070E080E090E00E9464048091AD059091F3
:102FD000AE05009761F040E052EC61E070E00E94C5
:102FE0008F0A8091AD059091AE050E94BF08809137
:102FF000AF059091B005009741F061E00E94D503C4
:1030000061E08091AF050E9403048091990580647E
:1030100080939905282F80919A05382F337050E0BE
:1030200040E060E081E895E00E940106809199050A
:10303000806880939905282F80919A05382F3370E6
:1030400050E040E060E081E895E00E940106809158
:103050009905806480939905282F80919A05382FCF
:10306000337050E040E060E081E895E00E940106A6
:10307000809199058E7F80939905282F80919A05DC
:10308000382F337050E040E060E081E895E00E9426
:1030900001068091A305807F84608093A305209121
:1030A000A3053091A4054091A5055091A6056CE6B5
:1030B00081E895E00E94010661E081E895E00E94C8
:1030C00087078CE494E00E94DB0680919905806874
:1030D00080939905282F80919A05382F337050E0FE
:1030E00040E060E081E895E00E94010663E081E84D
:1030F00095E00E94AD068091A60580618093A605AB
:103100002091A3053091A4054091A5055091A605F5
:103110006CE681E895E00E9401068091A905846033
:103120008093A9052091A7053091A8054091A90594
:103130005091AA0560E781E895E00E94010680E0D1
:103140000E945D068AE0809386052AE030E040E038
:1031500050E061E181E895E00E9401068AEC92E985
:10316000A9E8B1E48093070190930801A0930901B5
:10317000B0930A0180EB96E1ACEBB5E48093760462
:1031800090937704A0937804B09379048CE797EF39
:10319000ABE2B5E480937E0490937F04A093800417
:1031A000B09381048CE595EFA6E5B4E480937A04AE
:1031B00090937B04A0937C04B0937D0461E082E053
:1031C0000E94030461E083E00E94030461E088E060
:1031D0000E94030462E089E00E94030462E08BE045
:1031E0000E94030462E08AE00E94030461E088E038
:1031F0000E94D5030E94F3110E94B611662309F4C0
:1032000034C480930F0181E080939404109293045E
:1032100060910F0181E0682783E00E94D5038091CF
:103220009304B7E0CB2EB8EADB2EB6E7EB2EBFE374
:10323000FB2E811106C0C12CD12CA0E8EA2EAFE3F1
:10324000FA2E0E94D7104B015C012AEC32E949E8C2
:1032500051E4C701B6010E944124A50194010E94D6
:1032600041240E949E10F8941092800010928100D8
:103270001092850010928400809181008860809374
:1032800081008091810082608093810080E49CE9CC
:10329000909389008093880080916F008260809372
:1032A0006F0078941092E5031092E4031092E30308
:1032B0001092E2030E94990E83EA94E09093DF0358
:1032C0008093DE0384EA94E09093E1038093E0032B
:1032D0008CE08093B800E0914F05F091500530E00C
:1032E00020E040E06AE08BE495E0099518E09E015B
:1032F0002F5F3F4FA9963FAF2EAFA997D901E12F7E
:103300001D92EA95E9F7C9010E941C03E0914F055F
:10331000F091500530E020E040E06BE08BE495E078
:10332000099588E78093610582E691E090935C05BA
:1033300080935B05A996AEADBFADA9971D921A9576
:10334000E9F7CE0101960E941C0310927F051092AE
:1033500080056FEE71E080E00E94E10D6CEF71E09E
:1033600081E00E94E10DFE01EB5BFF4F1F019E011A
:103370002E5E3F4FAB963FAF2EAFAB970E949704A8
:103380002B013C010E94B611C62EB72EA82E0E941A
:10339000E111162F072F89E00E94AC0390910501DF
:1033A000891761F0809305010E9497046093E603FA
:1033B0007093E7038093E8039093E9030E949704D6
:1033C0002091E6033091E7034091E8035091E9032F
:1033D000621B730B840B950B6A3171058105910596
:1033E00020F0809105018093040190910401DD2477
:1033F000D3949111D12C8091EF039111E7C48111E5
:103400000CC00E9497046093EB037093EC038093CD
:10341000ED039093EE031092EA03F090EA03F110AB
:1034200014C00E9497042091EB033091EC0340916B
:10343000ED035091EE03621B730B840B950B60320E
:1034400073408105910508F017C3E12CF12CD0924F
:10345000EF03CC2009F416C3A0920F0181E0809302
:1034600094041092930480919204813061F40023BB
:1034700051F080919104811106C08DE495E00E9485
:1034800092051092920400939104EE2009F404C373
:1034900082E08093920491E09093900410928604CD
:1034A00010928704109288041092890440928B0431
:1034B00050928C0460928D0470928E0480919404DA
:1034C000882309F4E6C280910F01892780938F0435
:1034D00010928A0486E694E00E949205A0900F0163
:1034E000E196AFAEE197D0909204F2E0BF2EDB10F0
:1034F0000EC0C0908F04E196CFAEE197809190040A
:10350000823029F481E0C826E196CFAEE19761E0F0
:10351000E196EFACE1976E2583E00E94D503E2E0EF
:10352000FE2EDF10CEC221E0AC962FAFAC9780917B
:103530009004823009F0D0C2AC961FAEAC97E396EF
:103540000FAFE39772E0B72EDB1046C08091900476
:10355000823009F4CEC2002309F441C440918B04A7
:1035600050918C0460918D0470918E0473016201FE
:10357000C41AD50AE60AF70AB701A6014C3251402F
:103580006105710508F42BC4A0908A04E396AFAEE0
:10359000E397A110A5C281E080938A0490918F04E3
:1035A000982790938F048093900410928604109231
:1035B0008704109288041092890440928B045092E0
:1035C0008C0460928D0470928E048BE095E00E94D2
:1035D0009205E3960FAFE397D090920461E0DD206F
:1035E00019F0E3966FADE39788E00E94D50331E0D0
:1035F00081E0D31649F042E080E0D41205C080910A
:103600009004833009F0BEC29091F003981789F0BE
:103610008093F003823009F4B7C2833009F4BAC250
:10362000813039F48CE494E00E94DB0680E00E9453
:103630005D060E94D7104B015C0120E030E0A9013B
:1036400060910B0170910C0180910D0190910E0120
:103650000E94DD2287FF08C080920B0190920C012E
:10366000A0920D01B0920E0140900B0150900C0100
:1036700060900D0170900E01A3019201C501B4018B
:103680000E9470222DEC3CEC4CE45EE30E9441244D
:10369000A30192010E9471224B015C0180920B01F7
:1036A00090920C01A0920D01B0920E01C090920474
:1036B000E296CFAEE2972C2D223009F082C28091A3
:1036C0009004823009F069C240907E0450907F04DB
:1036D00060908004709081040E949704C0906704F9
:1036E000D0906804E0906904F0906A049B01AC01FA
:1036F0002C193D094E095F092A3F31054105510545
:1037000008F456C160936704709368048093690459
:1037100090936A046FEE71E0CE018A5A9F4F0E9427
:10372000B324E2963FADE297323009F071C2809146
:103730009004813009F463C2823009F463C283309B
:1037400009F463C285EE91E09F938F9385E092E048
:103750009F938F931F9281E18F933F922F920E94AC
:10376000D7240FB6F894DEBF0FBECDBF8091920470
:10377000DE01D4966D01823009F05DC2E196EFACB6
:10378000E1978EE4E11001C083E51F928F9388E4F6
:1037900092E09F938F931F9281E18F93DF92CF925C
:1037A0000E94D7240FB6F894DEBF0FBECDBF20E035
:1037B00030E048EC52E4C501B4010E94412420E00D
:1037C00030E040E05FE30E9471220E945423809128
:1037D0000601AE014D5D5F4F5A01811145C27F93D5
:1037E0006F938EE792E09F938F931F9281E18F9367
:1037F000BF92AF920E94D7240FB6F894DEBF0FBEDF
:10380000CDBF1F920F931F921F9382EA92E09F9366
:103810008F931F9241E1942E9F92AB96BFADAB97D1
:10382000BF93AA96EFADAA97EF930E94D72420E00A
:1038300030E041E655E4C301B2010E94412420E09A
:1038400030E44EEC56E40E94E22207E514E022E068
:1038500046E00E94251FC8019F930F9384EB92E0DE
:103860009F938F931F929F92EE24E394F12CEC0E82
:10387000FD1EFF92EF920E94D72440E150E0BE016E
:103880006A5A7F4F86E494E00E94BA240FB6F894F7
:10389000DEBF0FBECDBF892B81F040E150E0BE01FD
:1038A0006A5A7F4F86E494E00E94C824109256041E
:1038B00066E474E080E00E94E10D40E150E0B10177
:1038C00085E394E00E94BA24892B71F040E150E036
:1038D000B10185E394E00E94C8241092450465E399
:1038E00074E081E00E94E10D40E150E0B60184E225
:1038F00094E00E94BA24892B71F040E150E0B601B7
:1039000084E294E00E94C8241092340464E274E0DB
:1039100082E00E94E10D40E150E0B50183E194E0D6
:103920000E94BA24892B71F040E150E0B50183E197
:1039300094E00E94C8241092230463E174E083E0C1
:103940000E94E10D40E150E0BE016E5E7F4F82E0DB
:1039500094E00E94BA24892B81F040E150E0BE013E
:103960006E5E7F4F82E094E00E94C82410921204A1
:1039700062E074E084E00E94E10D40E150E0BE01AD
:103980006F5F7F4F81EF93E00E94BA24892B81F013
:1039900040E150E0BE016F5F7F4F81EF93E00E94F6
:1039A000C8241092010461EF73E085E00E94E10DEC
:1039B000E396AFACE397A09275048091920491E0F6
:1039C000813009F090E090937404813009F051C186
:1039D00080917304E196BFACE197B81661F0B092A4
:1039E00073040E943F0460936F047093700480938B
:1039F0007104909372040E943F0400916F0410912F
:103A000070042091710430917204601B710B820B61
:103A1000930B643F714081059105B4F48FB7F8941E
:103A200038EEC32E33E0D32EE12CF12CC0926B0480
:103A3000D0926C04E0926D04F0926E048FBF80917E
:103A40009204813009F015C1C301B2010E949E1099
:103A500080E090E0892B09F491CC0E940F05882327
:103A600009F481CC0E9400007ECC772309F4D0CBEE
:103A700081E080939304CCCB81E08093EA03EE2431
:103A8000E394E5CCBB2009F4EECC81E08093930471
:103A9000EACC10928F041CCDFF2009F41FCD809139
:103AA0009204823009F41ACD813029F410929204E4
:103AB00082E395E011CD81E08093920480E495E06B
:103AC0000BCD31E0AC963FAFAC9780918F04E1967F
:103AD000AFACE1978A1130CDE3961FAFE39732CDBB
:103AE00084EE94E00E949205109292041092900449
:103AF00073CD8091820490918304A0918404B0914D
:103B00008504481A590A6A0A7B0A20ED421627E002
:103B100052066104710440F01092860410928704EA
:103B200010928804109289048091860490918704F1
:103B3000A0918804B0918904892B8A2B8B2B49F49E
:103B4000111107C083E0809390048EEA94E00E94F4
:103B500092058091860490918704A0918804B09189
:103B60008904892B8A2B8B2B09F036CD8FE794E0C3
:103B7000112309F431CDB6CF112309F42DCD83E7FC
:103B800094E0B0CF82E040CD80EB94E00E94DB0671
:103B900081E04DCD8CE494E0F9CF833049F440903E
:103BA0007A0450907B0460907C0470907D0494CDE6
:103BB0004090760450907704609078047090790477
:103BC0008BCD809193048823A9F067E078EA86E79B
:103BD0009FE3209107013091080140910901509124
:103BE0000A010E944124A50194010E9441242B0155
:103BF0003C0172CD60E070E080E89FE3EACF8BED9E
:103C000091E0A2CD80EE91E09FCD8AEE91E09CCD37
:103C1000E2965FADE29767E372E0513041F4809144
:103C2000930465E172E0811102C066E272E0C101B5
:103C30000E94B3249BCD80919304E196EFACE19771
:103C4000882349F08EE4E11001C083E51F928F9331
:103C50008AE592E09ECD8EE4E11001C083E51F92DB
:103C60008F938CE692E095CD7F936F9380E992E0FD
:103C7000BACD823009F0ECCEE396DFACE397D110F9
:103C8000E7CE20E030E040E85FE3C301B2010E94EC
:103C9000DD2287FD92C020E030E040E05FE3C30119
:103CA000B2010E9471220E945B232B013C0141144E
:103CB00051046104710409F4CBCEA4E1B0E0A30186
:103CC00092010E94062228EE33E040E050E00E947C
:103CD000C52159016A01A114B104C104D10421F420
:103CE000A12CB12C6501A39460E472E48FE090E014
:103CF000A30192010E94C5212730310541055105DC
:103D000020F427E030E040E050E02550310941093F
:103D100051097901220F331F220F331F89010550EA
:103D20001109412C512C3201D301C2018F71992705
:103D3000AA27BB27892B8A2B8B2B51F40E94E111D8
:103D4000AC962FADAC97222309F43CC0611180CE14
:103D50005A9A8FE090E00197F1F70E94F311809159
:103D600090048230B9F48091860490918704A091E8
:103D70008804B09189040097A105B10559F0019715
:103D8000A109B1098093860490938704A0938804C5
:103D9000B093890452E0E516F10418F0C8010197C8
:103DA000F1F73FEF431A530A630A730A4A145B049C
:103DB0006C047D0408F4B8CF4BCE412C512C320159
:103DC00043947BCF772309F4C3CF42CE882309F4F1
:103DD0003CCBF090EA0381E0F826E12C38CB82302E
:103DE00009F487CE833009F4C7CED0909204813095
:103DF00009F0F7CB112309F4EFCB82E08093900414
:103E000068ECC62E69E1D62EE12CF12CC092860416
:103E1000D0928704E0928804F09289044092820450
:103E200050928304609284047092850487EC94E03D
:103E30000E949205D1CB8AEC91E09093BB058093D0
:103E4000BA058AEB95E00C94BF08EF920F931F938D
:103E5000CF93DF93E80134E047FD34E1042E000CFA
:103E6000550B57FF03C0519541955109E32E022F81
:103E7000242FAE010E94431FCE01DF91CF911F91ED
:103E80000F91EF900895A9E0B0E0E9E4FFE10C9410
:103E900080216A01F22EB02E102FFBE3AF2EA01668
:103EA00008F41BE31F5F012F27E0AE014F5F5F4F58
:103EB0000E94A220BC018981982F9970913009F449
:103EC0003FC09BE2E1FC04C09E2D9170E0FC3AC033
:103ED0005E2D5071E82FE87083FF46C084E0911199
:103EE00001C083E0EF2DE81B8F1508F0E0E0D6015C
:103EF0008E2F20E2552351F1992329F0D6019C936E
:103F0000C60101966C0196012D5F3F4FE2FE24C071
:103F10008EE4D6018C9391E411969C93119712969E
:103F20008C93D9018E2F90E281111BC0E20FF32FE9
:103F3000F11D10828EEF9FEF2996ECE00C949C21EE
:103F40009DE2C6CF90E2C4CF2D9381508111FCCF6A
:103F5000CE0ED11CE0E0D0CF8EE6D6018C9391E658
:103F6000DBCF9D938150E0CF482F447082FF3DC04E
:103F700084E0911101C083E08F1510F4EF2DE81B50
:103F8000D6018E2F20E2552309F1992329F0D6017D
:103F90009C93C60101966C0196012D5F3F4FE2FE96
:103FA0001BC089E4D6018C938EE411968C931197F3
:103FB00086E412968C93D9018E2F90E2882309F41F
:103FC000B5CF9D938150FACF2D9381508111FCCFB5
:103FD000CE0ED11CE0E0D9CF89E6D6018C938EE6D7
:103FE00011968C93119786E6E4CF9B0177FF02C070
:103FF00030E020E0A1E0B0E0911102C0B0E0A0E02C
:10400000F9013196AE0FBF1F8B2C912CBB2009F408
:1040100061C05401EFEFAE1ABE0AAA0DBB1DFA161D
:104020001B0619F014F04F2D4A1B511188C0E3FCF8
:1040300059C07601A42FB0E2A1114FC0C40ED11C0B
:10404000992309F45BC040E0D6011196F6019083F4
:104050006D01552309F448C0012F060F9A81582F8E
:10406000507184FF03C0913309F4015010160CF015
:1040700047C0093008F008E0EEE2FE2E5B01A01A0E
:10408000B10885019194819491082F3F320729F45A
:10409000D601FC92F60131966F016217730794F115
:1040A000021713077CF5DB01A21BB30BAA24A39410
:1040B000B12CAC0EBD1EAA0DBB1D11968C912150CA
:1040C0003109D601119628153905F4F0F6018083DF
:1040D0006D01DBCFB12CA12CA0CFF701B1937F01F3
:1040E000A150AACF9111B0CFD601942F50E302C0B6
:1040F0005D9391509111FCCFC40ED11C40E0ACCF28
:1041000001E0BACF80E3DBCF6217730731F4963357
:1041100088F4953311F4552369F0F6018083FD018D
:10412000842F90E2811108C0A40FB11D1C9290E071
:1041300080E002CF81E3F1CF91938150F3CF9111D1
:1041400083CF8ACF283008F027E03327DA01990F90
:10415000311D87FD916000966105710539F432606B
:104160002E5F3D9330E32A95E1F708959F3F30F0AD
:1041700080387105610509F03C5F3C5F3D939130EB
:1041800008F08068911DDF93CF931F930F93FF92E8
:10419000EF92192F987F9695E92F96959695E90FAE
:1041A000FF27EE53FF4F99273327EE24FF24A70163
:1041B000E70105900894079428F4360FE71EF81ECF
:1041C000491F511D660F771F881F991F0694A1F77D
:1041D0000590079428F4E70EF81E491F561FC11DCD
:1041E000770F881F991F661F0694A1F70590079403
:1041F00028F4F80E491F561FC71FD11D880F991F9D
:10420000661F771F0694A1F70590079420F4490FC5
:10421000561FC71FD81F990F661F771F881F069448
:10422000A9F784911095177041F0D695C7955795C9
:104230004795F794E7941A95C1F7E8E6F0E068949B
:104240001590159135916591959105907FE2739543
:10425000E118F10A430B560BC90BD009C0F7E10C6A
:10426000F11E431F561FC91FD01D7EF4703311F479
:104270008A95E6CFE894015030F0080F0AF4002741
:10428000021708F4202F2395022F7A3328F079E3C0
:104290007D932A95E9F710C07D932A9589F60694B7
:1042A00097956795379517951794E118F10A430B81
:1042B000560BC90BD00998F023957E9173957A33EC
:1042C00008F070E37C932013B8F77E9170617D93C2
:1042D00030F0839571E37D9370E32A95E1F7112423
:1042E000EF90FF900F911F91CF91DF91992787FD5C
:1042F000909508952F923F924F925F926F927F9286
:104300008F929F92AF92BF92CF92DF92EF92FF92E5
:104310000F931F93CF93DF93CDB7DEB7CA1BDB0B91
:104320000FB6F894DEBF0FBECDBF09942A88398836
:1043300048885F846E847D848C849B84AA84B9843D
:10434000C884DF80EE80FD800C811B81AA81B98149
:10435000CE0FD11D0FB6F894DEBF0FBECDBFED015D
:10436000089597FB072E16F4009407D077FD09D027
:104370000E94472207FC05D03EF4909581959F4FFF
:104380000895709561957F4F0895A1E21A2EAA1B9A
:10439000BB1BFD010DC0AA1FBB1FEE1FFF1FA217F5
:1043A000B307E407F50720F0A21BB30BE40BF50BF2
:1043B000661F771F881F991F1A9469F7609570957B
:1043C000809590959B01AC01BD01CF010895052E0C
:1043D00097FB1EF400940E94FE2157FD07D00E9417
:1043E000C52107FC03D04EF40C94FE215095409556
:1043F000309521953F4F4F4F5F4F08959095809591
:10440000709561957F4F8F4F9F4F08950E94612255
:10441000A59F900DB49F900DA49F800D911D112418
:104420000895002E083090F0982F872F762F652F53
:10443000542F432F322F22270850F4CF220F331F3F
:10444000441F551F661F771F881F991F0A95B2F7D3
:10445000002D089597FD1094002E083098F0085014
:10446000232F342F452F562F672F782F892F912DEB
:10447000F4CF1594979587957795679557954795B8
:10448000379527950A95AAF71124002D0895AA1BA0
:10449000BB1B51E107C0AA1FBB1FA617B70710F02F
:1044A000A61BB70B881F991F5A95A9F78095909561
:1044B000BC01CD010895EE0FFF1F0590F491E02D92
:1044C0000994A29FB001B39FC001A39F700D811DED
:1044D0001124911DB29F700D811D1124911D08950D
:1044E0005058BB27AA270E9488220C9402240E94BD
:1044F000F42338F00E94FB2320F039F49F3F19F495
:1045000026F40C94F1230EF4E095E7FB0C94EB23D6
:10451000E92F0E94132458F3BA1762077307840720
:10452000950720F079F4A6F50C9435240EF4E09567
:104530000B2EBA2FA02D0B01B90190010C01CA015D
:10454000A0011124FF27591B99F0593F50F4503E08
:1045500068F11A16F040A22F232F342F4427585FFA
:10456000F3CF469537952795A795F0405395C9F712
:104570007EF41F16BA0B620B730B840BBAF09150CA
:10458000A1F0FF0FBB1F661F771F881FC2F70EC069
:10459000BA0F621F731F841F48F48795779567953C
:1045A000B795F7959E3F08F0B0CF9395880F08F028
:1045B0009927EE0F9795879508950E94C72308F4D1
:1045C00081E008950E94F6220C9402240E94FB23AD
:1045D00058F00E94F42340F029F45F3F29F00C9436
:1045E000EB2351110C9436240C94F1230E941324D4
:1045F00068F39923B1F3552391F3951B550BBB2712
:10460000AA2762177307840738F09F5F5F4F220F56
:10461000331F441FAA1FA9F335D00E2E3AF0E0E84D
:1046200032D091505040E695001CCAF72BD0FE2F97
:1046300029D0660F771F881FBB1F2617370748072B
:10464000AB07B0E809F0BB0B802DBF01FF279358E3
:104650005F4F3AF09E3F510578F00C94EB230C9499
:1046600036245F3FE4F3983ED4F3869577956795BB
:10467000B795F7959F5FC9F7880F911D9695879518
:1046800097F90895E1E0660F771F881FBB1F621737
:1046900073078407BA0720F0621B730B840BBA0BF5
:1046A000EE1F88F7E09508950E945B236894B1118E
:1046B0000C94362408950E941B2488F09F5798F08C
:1046C000B92F9927B751B0F0E1F0660F771F881F17
:1046D000991F1AF0BA95C9F714C0B13091F00E9431
:1046E0003524B1E008950C943524672F782F88275E
:1046F000B85F39F0B93FCCF3869577956795B39558
:10470000D9F73EF490958095709561957F4F8F4FC6
:104710009F4F0895E89409C097FB3EF490958095CB
:10472000709561957F4F8F4F9F4F9923A9F0F92F77
:1047300096E9BB279395F695879577956795B795F5
:10474000F111F8CFFAF4BB0F11F460FF1BC06F5FDB
:104750007F4F8F4F9F4F16C0882311F096E911C0ED
:10476000772321F09EE8872F762F05C0662371F00E
:1047700096E8862F70E060E02AF09A95660F771F22
:10478000881FDAF7880F9695879597F90895990FFE
:104790000008550FAA0BE0E8FEEF16161706E8070B
:1047A000F907C0F012161306E407F50798F0621B2C
:1047B000730B840B950B39F40A2661F0232B242B01
:1047C000252B21F408950A2609F4A140A6958FEF20
:1047D000811D811D089597F99F6780E870E060E072
:1047E00008959FEF80EC089500240A94161617068A
:1047F00018060906089500240A94121613061406D2
:1048000005060895092E0394000C11F4882352F034
:10481000BB0F40F4BF2B11F460FF04C06F5F7F4FEC
:104820008F4F9F4F089557FD9058440F551F59F0D3
:104830005F3F71F04795880F97FB991F61F09F3F8D
:1048400079F087950895121613061406551FF2CFB6
:104850004695F1DF08C0161617061806991FF1CF06
:1048600086957105610508940895E894BB2766272D
:104870007727CB0197F908950E94C72308F48FEF9B
:1048800008950E9454240C9402240E94F42338F0CA
:104890000E94FB2320F0952311F00C94EB230C9441
:1048A000F12311240C9436240E94132470F3959F55
:1048B000C1F3950F50E0551F629FF001729FBB2717
:1048C000F00DB11D639FAA27F00DB11DAA1F649FB3
:1048D0006627B00DA11D661F829F2227B00DA11D66
:1048E000621F739FB00DA11D621F839FA00D611DEC
:1048F000221F749F3327A00D611D231F849F600D0D
:10490000211D822F762F6A2F11249F5750409AF035
:10491000F1F088234AF0EE0FFF1FBB1F661F771FC1
:10492000881F91505040A9F79E3F510580F00C948C
:10493000EB230C9436245F3FE4F3983ED4F3869542
:1049400077956795B795F795E7959F5FC1F7FE2B2C
:10495000880F911D9695879597F9089581E090E0CD
:10496000F8940C948527FB01DC0101900D92002046
:10497000E1F70895FB01DC014150504030F08D918A
:104980000190801919F40020B9F7881B990B08953C
:10499000FB01DC014150504048F001900D92002095
:1049A000C9F701C01D9241505040E0F70895AEE0B4
:1049B000B0E0EDEDF4E20C9488210D891E898F8919
:1049C000988D26E02C831A83098397FF02C080E02C
:1049D00090E801979E838D83AE01455E5F4F698DA0
:1049E0007A8DCE0101960E9407254D815E8157FD8B
:1049F0000AC02F813885421753070CF49A01020F21
:104A0000131FF80110822E96E4E00C94A421ABE071
:104A1000B0E0EDE0F5E20C947A217C013B018A01E3
:104A2000FC0117821682838181FFC8C1CE010196E5
:104A30005C01F7019381F30193FD859193FF8191CF
:104A40003F01882309F453C1853239F493FD8591E0
:104A500093FF81913F01853229F4B70190E00E94D4
:104A6000F726E7CF912C212C312CFFE1F31538F0FC
:104A70008B3211F190F4803209F1833229F137FC45
:104A80003CC020ED280F2A3050F536FE20C08AE0C9
:104A9000989E200D1124922E06C08D3291F0803305
:104AA00071F7689430F8F30193FD859193FF81913C
:104AB0003F018111DACF21C0689431F8689432F84F
:104AC000F2CF689433F8EFCF689434F8ECCFEAE093
:104AD0002E9E200D1124222E689435F8E4CF8E32BC
:104AE00029F436FC04C1689436F8DDCF8C3619F40D
:104AF000689437F8D8CF8836B1F2982F9F7D9554B7
:104B00009330E0F08336A1F18337C1F1833509F0AA
:104B100063C02801F2E04F0E511CF801C080D18023
:104B2000692D70E036FC02C06FEF7FEFC6010E9476
:104B3000E1264C01689437F882010AC00C5F1F4FD0
:104B4000FFE3F98388248394912C6501E89437F876
:104B500033FE2DC0522C8114910471F5552009F4B7
:104B600068CFB70180E290E00E94F7265A94F6CF12
:104B7000F801808189830E5F1F4FE4CF2801F2E0A6
:104B80004F0E511CF801C080D180692D70E036FCB9
:104B900002C06FEF7FEFC6010E94EC264C0182013C
:104BA000D5CFB70180E290E00E94F7262A9428141E
:104BB000190409F0B0F7CECFF60137FC859137FE26
:104BC00081916F01B70190E00E94F72651105A942D
:104BD000F1E08F1A9108BFCF843619F0893609F0B9
:104BE00077C0F80137FE6BC060817181828193814B
:104BF0000C5F1F4FF32DFF763F2E97FF09C0909556
:104C00008095709561957F4F8F4F9F4F689437F8CF
:104C10002AE030E0A5010E942727C82ECA188C2C54
:104C2000432C36FE0CC0E89440F8C91440F434FE1E
:104C300005C032FC03C0F32DFE7E4F2E892C44FEAE
:104C400095C0FE01EC0DF11D8081803309F087C015
:104C5000242D297E422E842D8870582E43FC95C029
:104C600040FE8FC09C2C821418F42C0C922C9818A7
:104C700044FE91C0B70180E390E00E94F72642FE17
:104C800009C088E790E041FE02C088E590E0B701E6
:104C90000E94F726C91408F48AC0CA94D12C9FEF49
:104CA000C91AD90ACA0CDB1CF60182916F01B7013F
:104CB00090E00E94F726AC14BD04B1F74FCF60819D
:104CC0007181072E000C880B990B0E5F1F4F92CF3E
:104CD000D32CE894D4F82AE030E0853739F1232D3D
:104CE000297FD22E8F3601F148F48835A9F0F701DB
:104CF000868197812B96E2E10C949621803749F0CA
:104D00008837A9F7D4FE02C06894D2F820E130E0D9
:104D10000DC06894D4F8F6CF34FE03C0822F8660AD
:104D2000D82E20E132E002C028E030E0F801D7FEC2
:104D30000FC060817181828193810C5F1F4FA5013B
:104D40000E942727C82ECA183D2CE89437F867CF51
:104D50006081718190E080E00E5F1F4FF0CF42FCD8
:104D600002C0839478CF8394839475CF842D867802
:104D700009F471CFF6CFB70180E290E00E94F726E8
:104D800083948214C0F3512C73CF522C5818821480
:104D900008F46ECFF8CF842D867809F47BCF8BE2B0
:104DA00041FE80E247FC8DE2B70190E071CFB70190
:104DB00080E390E00E94F7269A946CCF8FEF9FEFEC
:104DC00099CFFC010590615070400110D8F7809593
:104DD00090958E0F9F1F0895FC01615070400190C7
:104DE0000110D8F7809590958E0F9F1F08950F930F
:104DF0001F93CF93DF93182F092FEB018B8181FD38
:104E000009C01FEF0FEF812F902FDF91CF911F91DE
:104E10000F91089582FF14C02E813F818C819D8166
:104E2000281739073CF4E881F981CF01019699836D
:104E3000888310838E819F8101969F838E83E3CF29
:104E4000E885F985812F0995892BA1F3DACFFA013D
:104E5000AA27283051F1203181F1E8946F936E7FB9
:104E60006E5F7F4F8F4F9F4FAF4FB1E03ED0B4E0AA
:104E70003CD0670F781F891F9A1FA11D680F791FEB
:104E80008A1F911DA11D6A0F711D811D911DA11DFC
:104E900020D009F468943F912AE0269F112430190C
:104EA000305D3193DEF6CF010895462F4770405DA7
:104EB0004193B3E00FD0C9F7F6CF462F4F70405D56
:104EC0004A3318F0495D31FD4052419302D0A9F7B1
:104ED000EACFB4E0A6959795879577956795BA95AB
:104EE000C9F700976105710508959B01AC010A2E71
:104EF00006945795479537952795BA95C9F7620F48
:104F0000731F841F951FA01D089512E0C5EED2E007
:104F100004C0FE010E945B222196C63ED107C9F75C
:044F2000F894FFCF33
:104F240080841E0001010100004844000080BF018C
:104F34000001011815A015C019FF1815A115C819ED
:104F4400FF1815AE19FF1815AF19FF1815AE15D5B2
:104F5400168015A8163F15D316001540158D161486
:104F64001520160015A115C815DA1612158116CFCD
:104F740015D916F115DB1640152E15A415A619FF23
:104F84000001140A6464323200127A000004289684
:104F94001008000080004000000000004505A50442
:104FA400D204B6050305E104F504000000006F1007
:104FB400010F1E122908FA0EE70ED80E0000000099
:104FC400530EF5111E121D12000000000106FE080A
:104FD400C506F307A506AA070108CC070B08AD060A
:104FE400EE078707F807000000002A08A5041E1230
:104FF400290886089E0811080D0A004641535400EA
:105004004241434B0049444C4500534C4F57002008
:10501400455120506C6174666F726D0020426F6F51
:1050240074204F4B00204D6F64653A484F4D452D19
:10503400252D347300204D6F64653A4C554E415212
:10504400202020202000204D6F64653A54524143B3
:105054004B202020202000204D6F64653A49444CA9
:105064004520202020202000204469723A25632016
:1050740020202020202020202000204469723A256E
:10508400632D4C554E41522020202000204469724B
:105094003A25632D534944455245414C2000205440
:1050A40072696D3A2533642525204649582020002D
:1050B400205472696D3A2533642525202020202050
:1050C40020002053746F707320483A256420453AB9
:0E50D40025642000207265762F683A2573004F
:00000001FF
